{
  "address": "0x0A4768F5735BF3d22EE6De2DEd0C5bdfeD78FD11",
  "abi": [
    {
      "inputs": [
        {
          "internalType": "uint256",
          "name": "_lockTime",
          "type": "uint256"
        },
        {
          "internalType": "address",
          "name": "dataFeedAddr",
          "type": "address"
        }
      ],
      "stateMutability": "nonpayable",
      "type": "constructor"
    },
    {
      "inputs": [],
      "name": "dataFeed",
      "outputs": [
        {
          "internalType": "contract AggregatorV3Interface",
          "name": "",
          "type": "address"
        }
      ],
      "stateMutability": "view",
      "type": "function"
    },
    {
      "inputs": [],
      "name": "fund",
      "outputs": [],
      "stateMutability": "payable",
      "type": "function"
    },
    {
      "inputs": [
        {
          "internalType": "address",
          "name": "",
          "type": "address"
        }
      ],
      "name": "funderToAmount",
      "outputs": [
        {
          "internalType": "uint256",
          "name": "",
          "type": "uint256"
        }
      ],
      "stateMutability": "view",
      "type": "function"
    },
    {
      "inputs": [],
      "name": "getChainlinkDataFeedLatestAnswer",
      "outputs": [
        {
          "internalType": "int256",
          "name": "",
          "type": "int256"
        }
      ],
      "stateMutability": "view",
      "type": "function"
    },
    {
      "inputs": [],
      "name": "getFund",
      "outputs": [],
      "stateMutability": "nonpayable",
      "type": "function"
    },
    {
      "inputs": [],
      "name": "getFundSucess",
      "outputs": [
        {
          "internalType": "bool",
          "name": "",
          "type": "bool"
        }
      ],
      "stateMutability": "view",
      "type": "function"
    },
    {
      "inputs": [],
      "name": "owner",
      "outputs": [
        {
          "internalType": "address",
          "name": "",
          "type": "address"
        }
      ],
      "stateMutability": "view",
      "type": "function"
    },
    {
      "inputs": [],
      "name": "refund",
      "outputs": [],
      "stateMutability": "nonpayable",
      "type": "function"
    },
    {
      "inputs": [
        {
          "internalType": "address",
          "name": "_erc20Arrd",
          "type": "address"
        }
      ],
      "name": "setERc20Addr",
      "outputs": [],
      "stateMutability": "nonpayable",
      "type": "function"
    },
    {
      "inputs": [
        {
          "internalType": "address",
          "name": "funder",
          "type": "address"
        },
        {
          "internalType": "uint256",
          "name": "amountTOUpdate",
          "type": "uint256"
        }
      ],
      "name": "setFunderToAmount",
      "outputs": [],
      "stateMutability": "nonpayable",
      "type": "function"
    },
    {
      "inputs": [
        {
          "internalType": "address",
          "name": "newOwner",
          "type": "address"
        }
      ],
      "name": "transferOwnership",
      "outputs": [],
      "stateMutability": "nonpayable",
      "type": "function"
    }
  ],
  "transactionHash": "0xd6eb9ad178837708501ba1116026b5f45c5961eba2f3233ad7bb8a272110c5d2",
  "args": [
    180,
    "0x694AA1769357215DE4FAC081bf1f309aDC325306"
  ],
  "numDeployments": 1,
  "solcInputHash": "31e29f94dafda5d9ea60352ffa8ff1c0",
  "bytecode": "0x608060405268056bc75e2d631000006001556000600660146101000a81548160ff02191690831515021790555034801561003857600080fd5b506040516114cf3803806114cf833981810160405281019061005a919061018a565b33600360006101000a81548173ffffffffffffffffffffffffffffffffffffffff021916908373ffffffffffffffffffffffffffffffffffffffff16021790555080600260006101000a81548173ffffffffffffffffffffffffffffffffffffffff021916908373ffffffffffffffffffffffffffffffffffffffff160217905550426004819055508160058190555050506101ca565b600080fd5b6000819050919050565b610109816100f6565b811461011457600080fd5b50565b60008151905061012681610100565b92915050565b600073ffffffffffffffffffffffffffffffffffffffff82169050919050565b60006101578261012c565b9050919050565b6101678161014c565b811461017257600080fd5b50565b6000815190506101848161015e565b92915050565b600080604083850312156101a1576101a06100f1565b5b60006101af85828601610117565b92505060206101c085828601610175565b9150509250929050565b6112f6806101d96000396000f3fe60806040526004361061009c5760003560e01c80639e42ff90116100645780639e42ff9014610160578063a99486451461018b578063b60d4288146101b6578063bea4dfb5146101c0578063d39cf006146101eb578063f2fde38b146102145761009c565b80634407e1e8146100a1578063590e1ae3146100de5780638bfb5d68146100f55780638da5cb5b1461011e5780638edd6eb614610149575b600080fd5b3480156100ad57600080fd5b506100c860048036038101906100c39190610ab9565b61023d565b6040516100d59190610aff565b60405180910390f35b3480156100ea57600080fd5b506100f3610255565b005b34801561010157600080fd5b5061011c60048036038101906101179190610ab9565b6104af565b005b34801561012a57600080fd5b50610133610583565b6040516101409190610b29565b60405180910390f35b34801561015557600080fd5b5061015e6105a9565b005b34801561016c57600080fd5b5061017561070b565b6040516101829190610ba3565b60405180910390f35b34801561019757600080fd5b506101a0610731565b6040516101ad9190610bd9565b60405180910390f35b6101be610744565b005b3480156101cc57600080fd5b506101d56107da565b6040516101e29190610c0d565b60405180910390f35b3480156101f757600080fd5b50610212600480360381019061020d9190610c54565b61087b565b005b34801561022057600080fd5b5061023b60048036038101906102369190610ab9565b610952565b005b60006020528060005260406000206000915090505481565b6005546004546102659190610cc3565b4210156102a7576040517f08c379a000000000000000000000000000000000000000000000000000000000815260040161029e90610d54565b60405180910390fd5b683635c9adc5dea000006102ba47610a26565b11156102fb576040517f08c379a00000000000000000000000000000000000000000000000000000000081526004016102f290610dc0565b60405180910390fd5b60008060003373ffffffffffffffffffffffffffffffffffffffff1673ffffffffffffffffffffffffffffffffffffffff168152602001908152602001600020540361037c576040517f08c379a000000000000000000000000000000000000000000000000000000000815260040161037390610e2c565b60405180910390fd5b60003373ffffffffffffffffffffffffffffffffffffffff166000803373ffffffffffffffffffffffffffffffffffffffff1673ffffffffffffffffffffffffffffffffffffffff168152602001908152602001600020546040516103e090610e7d565b60006040518083038185875af1925050503d806000811461041d576040519150601f19603f3d011682016040523d82523d6000602084013e610422565b606091505b50508091505080610468576040517f08c379a000000000000000000000000000000000000000000000000000000000815260040161045f90610ede565b60405180910390fd5b60008060003373ffffffffffffffffffffffffffffffffffffffff1673ffffffffffffffffffffffffffffffffffffffff1681526020019081526020016000208190555050565b600360009054906101000a900473ffffffffffffffffffffffffffffffffffffffff1673ffffffffffffffffffffffffffffffffffffffff163373ffffffffffffffffffffffffffffffffffffffff161461053f576040517f08c379a000000000000000000000000000000000000000000000000000000000815260040161053690610f70565b60405180910390fd5b80600660006101000a81548173ffffffffffffffffffffffffffffffffffffffff021916908373ffffffffffffffffffffffffffffffffffffffff16021790555050565b600360009054906101000a900473ffffffffffffffffffffffffffffffffffffffff1681565b6005546004546105b99190610cc3565b4210156105fb576040517f08c379a00000000000000000000000000000000000000000000000000000000081526004016105f290610d54565b60405180910390fd5b60003373ffffffffffffffffffffffffffffffffffffffff164760405161062190610e7d565b60006040518083038185875af1925050503d806000811461065e576040519150601f19603f3d011682016040523d82523d6000602084013e610663565b606091505b505080915050806106a9576040517f08c379a00000000000000000000000000000000000000000000000000000000081526004016106a090610ede565b60405180910390fd5b60008060003373ffffffffffffffffffffffffffffffffffffffff1673ffffffffffffffffffffffffffffffffffffffff168152602001908152602001600020819055506001600660146101000a81548160ff02191690831515021790555050565b600260009054906101000a900473ffffffffffffffffffffffffffffffffffffffff1681565b600660149054906101000a900460ff1681565b6005546004546107549190610cc3565b4210610795576040517f08c379a000000000000000000000000000000000000000000000000000000000815260040161078c90610fdc565b60405180910390fd5b346000803373ffffffffffffffffffffffffffffffffffffffff1673ffffffffffffffffffffffffffffffffffffffff16815260200190815260200160002081905550565b600080600260009054906101000a900473ffffffffffffffffffffffffffffffffffffffff1673ffffffffffffffffffffffffffffffffffffffff1663feaf968c6040518163ffffffff1660e01b815260040160a060405180830381865afa15801561084a573d6000803e3d6000fd5b505050506040513d601f19601f8201168201806040525081019061086e919061107f565b5050509150508091505090565b600660009054906101000a900473ffffffffffffffffffffffffffffffffffffffff1673ffffffffffffffffffffffffffffffffffffffff163373ffffffffffffffffffffffffffffffffffffffff161461090b576040517f08c379a00000000000000000000000000000000000000000000000000000000081526004016109029061116c565b60405180910390fd5b806000808473ffffffffffffffffffffffffffffffffffffffff1673ffffffffffffffffffffffffffffffffffffffff168152602001908152602001600020819055505050565b600360009054906101000a900473ffffffffffffffffffffffffffffffffffffffff1673ffffffffffffffffffffffffffffffffffffffff163373ffffffffffffffffffffffffffffffffffffffff16146109e2576040517f08c379a00000000000000000000000000000000000000000000000000000000081526004016109d9906111fe565b60405180910390fd5b80600360006101000a81548173ffffffffffffffffffffffffffffffffffffffff021916908373ffffffffffffffffffffffffffffffffffffffff16021790555050565b600080610a316107da565b90506305f5e1008184610a44919061121e565b610a4e919061128f565b915050919050565b600080fd5b600073ffffffffffffffffffffffffffffffffffffffff82169050919050565b6000610a8682610a5b565b9050919050565b610a9681610a7b565b8114610aa157600080fd5b50565b600081359050610ab381610a8d565b92915050565b600060208284031215610acf57610ace610a56565b5b6000610add84828501610aa4565b91505092915050565b6000819050919050565b610af981610ae6565b82525050565b6000602082019050610b146000830184610af0565b92915050565b610b2381610a7b565b82525050565b6000602082019050610b3e6000830184610b1a565b92915050565b6000819050919050565b6000610b69610b64610b5f84610a5b565b610b44565b610a5b565b9050919050565b6000610b7b82610b4e565b9050919050565b6000610b8d82610b70565b9050919050565b610b9d81610b82565b82525050565b6000602082019050610bb86000830184610b94565b92915050565b60008115159050919050565b610bd381610bbe565b82525050565b6000602082019050610bee6000830184610bca565b92915050565b6000819050919050565b610c0781610bf4565b82525050565b6000602082019050610c226000830184610bfe565b92915050565b610c3181610ae6565b8114610c3c57600080fd5b50565b600081359050610c4e81610c28565b92915050565b60008060408385031215610c6b57610c6a610a56565b5b6000610c7985828601610aa4565b9250506020610c8a85828601610c3f565b9150509250929050565b7f4e487b7100000000000000000000000000000000000000000000000000000000600052601160045260246000fd5b6000610cce82610ae6565b9150610cd983610ae6565b9250828201905080821115610cf157610cf0610c94565b5b92915050565b600082825260208201905092915050565b7f77696e646f77206973206e6f7420636c6f736564000000000000000000000000600082015250565b6000610d3e601483610cf7565b9150610d4982610d08565b602082019050919050565b60006020820190508181036000830152610d6d81610d31565b9050919050565b7f5461726765742069732020726561636865642100000000000000000000000000600082015250565b6000610daa601383610cf7565b9150610db582610d74565b602082019050919050565b60006020820190508181036000830152610dd981610d9d565b9050919050565b7f7468657265206973206e6f2066756e6420666f7220796f750000000000000000600082015250565b6000610e16601883610cf7565b9150610e2182610de0565b602082019050919050565b60006020820190508181036000830152610e4581610e09565b9050919050565b600081905092915050565b50565b6000610e67600083610e4c565b9150610e7282610e57565b600082019050919050565b6000610e8882610e5a565b9150819050919050565b7f7478616e73666572207478206661696c65640000000000000000000000000000600082015250565b6000610ec8601283610cf7565b9150610ed382610e92565b602082019050919050565b60006020820190508181036000830152610ef781610ebb565b9050919050565b7f746869732066756e6374696f6e2063616e206f6e6c792062652063616c6c656460008201527f206279206f776e65720000000000000000000000000000000000000000000000602082015250565b6000610f5a602983610cf7565b9150610f6582610efe565b604082019050919050565b60006020820190508181036000830152610f8981610f4d565b9050919050565b7f77696e646f7720697320636c6f73656400000000000000000000000000000000600082015250565b6000610fc6601083610cf7565b9150610fd182610f90565b602082019050919050565b60006020820190508181036000830152610ff581610fb9565b9050919050565b600069ffffffffffffffffffff82169050919050565b61101b81610ffc565b811461102657600080fd5b50565b60008151905061103881611012565b92915050565b61104781610bf4565b811461105257600080fd5b50565b6000815190506110648161103e565b92915050565b60008151905061107981610c28565b92915050565b600080600080600060a0868803121561109b5761109a610a56565b5b60006110a988828901611029565b95505060206110ba88828901611055565b94505060406110cb8882890161106a565b93505060606110dc8882890161106a565b92505060806110ed88828901611029565b9150509295509295909350565b7f796f7520646f206e6f742068617665207065726d697373696f6e20746f20636160008201527f6c6c20746869732066756e6374756f6e00000000000000000000000000000000602082015250565b6000611156603083610cf7565b9150611161826110fa565b604082019050919050565b6000602082019050818103600083015261118581611149565b9050919050565b7f746869732066756e6374696f6e2063616e206f6e6c792062652063616c6c656460008201527f206279206f776e65722021000000000000000000000000000000000000000000602082015250565b60006111e8602b83610cf7565b91506111f38261118c565b604082019050919050565b60006020820190508181036000830152611217816111db565b9050919050565b600061122982610ae6565b915061123483610ae6565b925082820261124281610ae6565b9150828204841483151761125957611258610c94565b5b5092915050565b7f4e487b7100000000000000000000000000000000000000000000000000000000600052601260045260246000fd5b600061129a82610ae6565b91506112a583610ae6565b9250826112b5576112b4611260565b5b82820490509291505056fea264697066735822122090fbec75a53e8f7744fc48fc96ccbbd32ff66aa711eedae4daf40c325aa9135364736f6c634300081c0033",
  "devdoc": {
    "kind": "dev",
    "methods": {},
    "version": 1
  },
  "userdoc": {
    "kind": "user",
    "methods": {
      "getChainlinkDataFeedLatestAnswer()": {
        "notice": "Returns the latest answer."
      }
    },
    "version": 1
  },
  "storageLayout": {
    "storage": [
      {
        "astId": 1030,
        "contract": "contracts/FundMe.sol:FundMe",
        "label": "funderToAmount",
        "offset": 0,
        "slot": "0",
        "type": "t_mapping(t_address,t_uint256)"
      },
      {
        "astId": 1037,
        "contract": "contracts/FundMe.sol:FundMe",
        "label": "MINIMUN_VALUE_USD",
        "offset": 0,
        "slot": "1",
        "type": "t_uint256"
      },
      {
        "astId": 1040,
        "contract": "contracts/FundMe.sol:FundMe",
        "label": "dataFeed",
        "offset": 0,
        "slot": "2",
        "type": "t_contract(AggregatorV3Interface)104"
      },
      {
        "astId": 1049,
        "contract": "contracts/FundMe.sol:FundMe",
        "label": "owner",
        "offset": 0,
        "slot": "3",
        "type": "t_address"
      },
      {
        "astId": 1051,
        "contract": "contracts/FundMe.sol:FundMe",
        "label": "deploymentTimestamp",
        "offset": 0,
        "slot": "4",
        "type": "t_uint256"
      },
      {
        "astId": 1053,
        "contract": "contracts/FundMe.sol:FundMe",
        "label": "lockTime",
        "offset": 0,
        "slot": "5",
        "type": "t_uint256"
      },
      {
        "astId": 1055,
        "contract": "contracts/FundMe.sol:FundMe",
        "label": "erc20Addr",
        "offset": 0,
        "slot": "6",
        "type": "t_address"
      },
      {
        "astId": 1058,
        "contract": "contracts/FundMe.sol:FundMe",
        "label": "getFundSucess",
        "offset": 20,
        "slot": "6",
        "type": "t_bool"
      }
    ],
    "types": {
      "t_address": {
        "encoding": "inplace",
        "label": "address",
        "numberOfBytes": "20"
      },
      "t_bool": {
        "encoding": "inplace",
        "label": "bool",
        "numberOfBytes": "1"
      },
      "t_contract(AggregatorV3Interface)104": {
        "encoding": "inplace",
        "label": "contract AggregatorV3Interface",
        "numberOfBytes": "20"
      },
      "t_mapping(t_address,t_uint256)": {
        "encoding": "mapping",
        "key": "t_address",
        "label": "mapping(address => uint256)",
        "numberOfBytes": "32",
        "value": "t_uint256"
      },
      "t_uint256": {
        "encoding": "inplace",
        "label": "uint256",
        "numberOfBytes": "32"
      }
    }
  }
}